:020000040800F2
:10000000B00600203902000841020008430200083F
:1000100045020008470200084902000800000000ED
:100020000000000000000000000000004B0200087B
:100030004D020008000000004F02000819030008EC
:10004000530200085302000853020008530200083C
:10005000530200085302000853020008530200082C
:10006000530200085302000853020008530200081C
:10007000530200085302000853020008530200080C
:100080005302000853020008530200080000000059
:100090000000000000000000000000005302000803
:1000A00053020008530200085302000853020008DC
:1000B00053020008530200085302000853020008CC
:1000C00053020008530200085302000853020008BC
:1000D00053020008950300085302000800000000C6
:1000E00053020008530200085302000800000000F9
:1000F00000000000000000000000000053020008A3
:1001000000000000530200085302000853020008D8
:1001100000000000000000000000000000000000DF
:10012000530200085302000853020008530200085B
:100130005302000800000000000000000000000062
:100140000000000000000000000000005302000852
:10015000530200085302000853020008530200082B
:1001600053020008530200080000000000000000D5
:10017000000000000000000000000000000000007F
:100180000000000053020008000000000000000012
:10019000530200085302000800F002F800F03CF897
:1001A0000AA090E8000C82448344AAF10107DA45D2
:1001B00001D100F031F8AFF2090EBAE80F0013F0E8
:1001C000010F18BFFB1A43F0010318472804000071
:1001D00048040000103A24BF78C878C1FAD8520702
:1001E00024BF30C830C144BF04680C6070470000B1
:1001F0000023002400250026103A28BF78C1FBD830
:10020000520728BF30C148BF0B6070471FB500F0D0
:10021000EBF91FBD10B510BD00F031F81146FFF726
:10022000F5FF00F005F900F04FF803B4FFF7F2FF17
:1002300003BC00F057F80000094880470948004710
:10024000FEE7FEE7FEE7FEE7FEE7FEE7FEE7FEE786
:10025000FEE7FEE704480549054A064B70470000E3
:100260003103000899010008B0000020B00600200A
:10027000B0020020B00200207047704770477546FA
:1002800000F02CF8AE4605006946534620F0070002
:10029000854618B020B5FFF7DDFFBDE820404FF0E0
:1002A00000064FF000074FF000084FF0000B21F060
:1002B0000701AC46ACE8C009ACE8C009ACE8C0092D
:1002C000ACE8C0098D46704710B50446AFF3008016
:1002D0002046BDE81040FFF7A8BF00000048704767
:1002E0004C00002001491820ABBEFEE726000200AA
:1002F000704700000649086004E0064909780129B2
:1003000000D17047024909680029F6D100BFF8E71B
:1003100000000020040000200448006820B10348C9
:100320000068401E0149086070470000000000207E
:100330001448006840F470001249086012480068D0
:1003400040F001001049086000200F4908310860A2
:100350000D4800680D4908400B4908600C48091D0C
:100360000860081F006820F48020091F0860002032
:1003700005490C3108604FF000600249803908607F
:100380007047000088ED00E000380240FFFFF6FEF5
:10039000103000241148006800F02000E8B10F4838
:1003A00040680F490870084600780E490E4A1278D6
:1003B00088540D480078402805D00B480078401C30
:1003C0000949087002E000200749087004480078D5
:1003D0000D2802D101200549087070470010014026
:1003E000050000200C000020060000200400002072
:1003F0000D48006840F001000B4908600B48006898
:1004000020F44050094908600846006840F48050D4
:1004100008600846006820F440400860084600680C
:1004200040F48040086070473038024000000240CD
:1004300000F04AF8FFF7DCFF00F092F81A488069F4
:1004400040F08000184988612DE01748806940F02D
:100450004000154988616420FFF74CFF124880690D
:1004600040F480001049886110A000F059F8002085
:10047000104908706420FFF73DFF0E4800780128FE
:1004800011D10D48007835280DD100200949087098
:100490000A4908700849087009A000F041F84FF4B3
:1004A0007A70FFF727FFD0E70000024073746D33C6
:1004B00032000000040000200C0000200600002094
:1004C00035204F4B0000000070B5FFF731FF114998
:1004D000481EB0F1807F00D31BE0481E4FF0E022A1
:1004E000506150170F22002804DB13071C0E0A4B23
:1004F0001C5406E013071D0E084B00F00F04241FC8
:100500001D5500BF00204FF0E022906107201061D0
:1005100000BF70BDA086010000E400E018ED00E01F
:1005200000B50246002304E0D05C00F00DF8581C32
:10053000C3B2D05C0028F7D10D2000F005F80A20E6
:1005400000F002F800BD000000BF0449096801F096
:1005500040010029F9D0014948607047001001406E
:100560001D48006840F010001B4908601A48143804
:10057000006840F001001849143908601748006805
:1005800040F42010154908600846406A40F4EE61C6
:1005900012484162124800684FF4E131B0FBF1F0BB
:1005A000104988600846C06842F22C0108430D4992
:1005B000C860252000280DDB00BF00BF00F01F022F
:1005C000012191404209920002F1E022C2F800119B
:1005D00000BF00BF00BF7047443802400000024027
:1005E00008000020001001404FF04070E1EE100ABA
:1005F0007047000014060008000000200C000000F6
:10060000D4010008200600080C000020A406000009
:10061000F001000800000000000000000024F400C9
:0400000508000239B4
:00000001FF
